{
  "_format": "hh-sol-artifact-1",
  "contractName": "Election",
  "sourceName": "contracts/Election.sol",
  "abi": [
    {
      "anonymous": false,
      "inputs": [
        {
          "indexed": false,
          "internalType": "uint256",
          "name": "indexed_candidateId",
          "type": "uint256"
        }
      ],
      "name": "addCandidateEvent",
      "type": "event"
    },
    {
      "anonymous": false,
      "inputs": [
        {
          "indexed": false,
          "internalType": "uint256",
          "name": "indexed_candidateId",
          "type": "uint256"
        }
      ],
      "name": "votedEvent",
      "type": "event"
    },
    {
      "inputs": [
        {
          "internalType": "string",
          "name": "_name",
          "type": "string"
        },
        {
          "internalType": "string",
          "name": "_party",
          "type": "string"
        }
      ],
      "name": "addCandidate",
      "outputs": [],
      "stateMutability": "nonpayable",
      "type": "function"
    },
    {
      "inputs": [
        {
          "internalType": "uint256",
          "name": "",
          "type": "uint256"
        }
      ],
      "name": "candidates",
      "outputs": [
        {
          "internalType": "uint256",
          "name": "id",
          "type": "uint256"
        },
        {
          "internalType": "string",
          "name": "name",
          "type": "string"
        },
        {
          "internalType": "uint256",
          "name": "voteCount",
          "type": "uint256"
        },
        {
          "internalType": "string",
          "name": "party",
          "type": "string"
        }
      ],
      "stateMutability": "view",
      "type": "function"
    },
    {
      "inputs": [],
      "name": "candidatesCount",
      "outputs": [
        {
          "internalType": "uint256",
          "name": "",
          "type": "uint256"
        }
      ],
      "stateMutability": "view",
      "type": "function"
    },
    {
      "inputs": [
        {
          "internalType": "uint256",
          "name": "_candidateId",
          "type": "uint256"
        }
      ],
      "name": "getCandidate",
      "outputs": [
        {
          "components": [
            {
              "internalType": "uint256",
              "name": "id",
              "type": "uint256"
            },
            {
              "internalType": "string",
              "name": "name",
              "type": "string"
            },
            {
              "internalType": "uint256",
              "name": "voteCount",
              "type": "uint256"
            },
            {
              "internalType": "string",
              "name": "party",
              "type": "string"
            }
          ],
          "internalType": "struct Election.Candidate",
          "name": "",
          "type": "tuple"
        }
      ],
      "stateMutability": "view",
      "type": "function"
    },
    {
      "inputs": [],
      "name": "getCandidateTotal",
      "outputs": [
        {
          "internalType": "uint256",
          "name": "",
          "type": "uint256"
        }
      ],
      "stateMutability": "view",
      "type": "function"
    },
    {
      "inputs": [
        {
          "internalType": "uint256",
          "name": "_candidateId",
          "type": "uint256"
        }
      ],
      "name": "vote",
      "outputs": [],
      "stateMutability": "nonpayable",
      "type": "function"
    },
    {
      "inputs": [],
      "name": "voteTotal",
      "outputs": [
        {
          "internalType": "uint256",
          "name": "",
          "type": "uint256"
        }
      ],
      "stateMutability": "view",
      "type": "function"
    },
    {
      "inputs": [
        {
          "internalType": "address",
          "name": "",
          "type": "address"
        }
      ],
      "name": "voters",
      "outputs": [
        {
          "internalType": "bool",
          "name": "",
          "type": "bool"
        }
      ],
      "stateMutability": "view",
      "type": "function"
    }
  ],
  "bytecode": "0x608060405234801561001057600080fd5b5061126a806100206000396000f3fe608060405234801561001057600080fd5b50600436106100885760003560e01c80633477ee2e1161005b5780633477ee2e1461010157806335b8e820146101345780633e808c9014610164578063a3ec138d1461018257610088565b80630121b93f1461008d57806313ac9236146100a957806326541b56146100c75780632d35a8a2146100e3575b600080fd5b6100a760048036038101906100a2919061080a565b6101b2565b005b6100b16103a9565b6040516100be9190610846565b60405180910390f35b6100e160048036038101906100dc91906109a7565b6103b3565b005b6100eb6104c8565b6040516100f89190610846565b60405180910390f35b61011b6004803603810190610116919061080a565b6104ce565b60405161012b9493929190610a9e565b60405180910390f35b61014e6004803603810190610149919061080a565b61060e565b60405161015b9190610bb4565b60405180910390f35b61016c610772565b6040516101799190610846565b60405180910390f35b61019c60048036038101906101979190610c34565b610778565b6040516101a99190610c7c565b60405180910390f35b600160003373ffffffffffffffffffffffffffffffffffffffff1673ffffffffffffffffffffffffffffffffffffffff16815260200190815260200160002060009054906101000a900460ff161561023f576040517f08c379a000000000000000000000000000000000000000000000000000000000815260040161023690610d09565b60405180910390fd5b60008111801561025157506002548111155b610290576040517f08c379a000000000000000000000000000000000000000000000000000000000815260040161028790610d9b565b60405180910390fd5b6002805410156102d5576040517f08c379a00000000000000000000000000000000000000000000000000000000081526004016102cc90610e2d565b60405180910390fd5b60018060003373ffffffffffffffffffffffffffffffffffffffff1673ffffffffffffffffffffffffffffffffffffffff16815260200190815260200160002060006101000a81548160ff021916908315150217905550600080828152602001908152602001600020600201600081548092919061035290610e7c565b91905055506003600081548092919061036a90610e7c565b91905055507ffff3c900d938d21d0990d786e819f29b8d05c1ef587b462b939609625b684b168160405161039e9190610846565b60405180910390a150565b6000600254905090565b6000600354146103f8576040517f08c379a00000000000000000000000000000000000000000000000000000000081526004016103ef90610f36565b60405180910390fd5b6002600081548092919061040b90610e7c565b919050555060405180608001604052806002548152602001838152602001600081526020018281525060008060025481526020019081526020016000206000820151816000015560208201518160010190816104679190611162565b506040820151816002015560608201518160030190816104879190611162565b509050507f256327ff1553bea8de188ecb0e6c936206cd7bd2f2a6ee189faed299944a03c56002546040516104bc9190610846565b60405180910390a15050565b60025481565b60006020528060005260406000206000915090508060000154908060010180546104f790610f85565b80601f016020809104026020016040519081016040528092919081815260200182805461052390610f85565b80156105705780601f1061054557610100808354040283529160200191610570565b820191906000526020600020905b81548152906001019060200180831161055357829003601f168201915b50505050509080600201549080600301805461058b90610f85565b80601f01602080910402602001604051908101604052809291908181526020018280546105b790610f85565b80156106045780601f106105d957610100808354040283529160200191610604565b820191906000526020600020905b8154815290600101906020018083116105e757829003601f168201915b5050505050905084565b610616610798565b6000808381526020019081526020016000206040518060800160405290816000820154815260200160018201805461064d90610f85565b80601f016020809104026020016040519081016040528092919081815260200182805461067990610f85565b80156106c65780601f1061069b576101008083540402835291602001916106c6565b820191906000526020600020905b8154815290600101906020018083116106a957829003601f168201915b50505050508152602001600282015481526020016003820180546106e990610f85565b80601f016020809104026020016040519081016040528092919081815260200182805461071590610f85565b80156107625780601f1061073757610100808354040283529160200191610762565b820191906000526020600020905b81548152906001019060200180831161074557829003601f168201915b5050505050815250509050919050565b60035481565b60016020528060005260406000206000915054906101000a900460ff1681565b6040518060800160405280600081526020016060815260200160008152602001606081525090565b6000604051905090565b600080fd5b600080fd5b6000819050919050565b6107e7816107d4565b81146107f257600080fd5b50565b600081359050610804816107de565b92915050565b6000602082840312156108205761081f6107ca565b5b600061082e848285016107f5565b91505092915050565b610840816107d4565b82525050565b600060208201905061085b6000830184610837565b92915050565b600080fd5b600080fd5b6000601f19601f8301169050919050565b7f4e487b7100000000000000000000000000000000000000000000000000000000600052604160045260246000fd5b6108b48261086b565b810181811067ffffffffffffffff821117156108d3576108d261087c565b5b80604052505050565b60006108e66107c0565b90506108f282826108ab565b919050565b600067ffffffffffffffff8211156109125761091161087c565b5b61091b8261086b565b9050602081019050919050565b82818337600083830152505050565b600061094a610945846108f7565b6108dc565b90508281526020810184848401111561096657610965610866565b5b610971848285610928565b509392505050565b600082601f83011261098e5761098d610861565b5b813561099e848260208601610937565b91505092915050565b600080604083850312156109be576109bd6107ca565b5b600083013567ffffffffffffffff8111156109dc576109db6107cf565b5b6109e885828601610979565b925050602083013567ffffffffffffffff811115610a0957610a086107cf565b5b610a1585828601610979565b9150509250929050565b600081519050919050565b600082825260208201905092915050565b60005b83811015610a59578082015181840152602081019050610a3e565b60008484015250505050565b6000610a7082610a1f565b610a7a8185610a2a565b9350610a8a818560208601610a3b565b610a938161086b565b840191505092915050565b6000608082019050610ab36000830187610837565b8181036020830152610ac58186610a65565b9050610ad46040830185610837565b8181036060830152610ae68184610a65565b905095945050505050565b610afa816107d4565b82525050565b600082825260208201905092915050565b6000610b1c82610a1f565b610b268185610b00565b9350610b36818560208601610a3b565b610b3f8161086b565b840191505092915050565b6000608083016000830151610b626000860182610af1565b5060208301518482036020860152610b7a8282610b11565b9150506040830151610b8f6040860182610af1565b5060608301518482036060860152610ba78282610b11565b9150508091505092915050565b60006020820190508181036000830152610bce8184610b4a565b905092915050565b600073ffffffffffffffffffffffffffffffffffffffff82169050919050565b6000610c0182610bd6565b9050919050565b610c1181610bf6565b8114610c1c57600080fd5b50565b600081359050610c2e81610c08565b92915050565b600060208284031215610c4a57610c496107ca565b5b6000610c5884828501610c1f565b91505092915050565b60008115159050919050565b610c7681610c61565b82525050565b6000602082019050610c916000830184610c6d565b92915050565b7f566f746520616c726561647920636173742066726f6d2074686973206164647260008201527f6573730000000000000000000000000000000000000000000000000000000000602082015250565b6000610cf3602383610a2a565b9150610cfe82610c97565b604082019050919050565b60006020820190508181036000830152610d2281610ce6565b9050919050565b7f43616e646964617465204944206973206e6f7420696e2072616e6765206f662060008201527f63616e6469646174657300000000000000000000000000000000000000000000602082015250565b6000610d85602a83610a2a565b9150610d9082610d29565b604082019050919050565b60006020820190508181036000830152610db481610d78565b9050919050565b7f4d757374206265206174206c6561737420322063616e6469646174657320626560008201527f666f726520766f7465732063616e206265206361737400000000000000000000602082015250565b6000610e17603683610a2a565b9150610e2282610dbb565b604082019050919050565b60006020820190508181036000830152610e4681610e0a565b9050919050565b7f4e487b7100000000000000000000000000000000000000000000000000000000600052601160045260246000fd5b6000610e87826107d4565b91507fffffffffffffffffffffffffffffffffffffffffffffffffffffffffffffffff8203610eb957610eb8610e4d565b5b600182019050919050565b7f43616e6e6f74207375626d69742063616e64696461746520616674657220666960008201527f72737420766f7465207265636f72646564000000000000000000000000000000602082015250565b6000610f20603183610a2a565b9150610f2b82610ec4565b604082019050919050565b60006020820190508181036000830152610f4f81610f13565b9050919050565b7f4e487b7100000000000000000000000000000000000000000000000000000000600052602260045260246000fd5b60006002820490506001821680610f9d57607f821691505b602082108103610fb057610faf610f56565b5b50919050565b60008190508160005260206000209050919050565b60006020601f8301049050919050565b600082821b905092915050565b6000600883026110187fffffffffffffffffffffffffffffffffffffffffffffffffffffffffffffffff82610fdb565b6110228683610fdb565b95508019841693508086168417925050509392505050565b6000819050919050565b600061105f61105a611055846107d4565b61103a565b6107d4565b9050919050565b6000819050919050565b61107983611044565b61108d61108582611066565b848454610fe8565b825550505050565b600090565b6110a2611095565b6110ad818484611070565b505050565b5b818110156110d1576110c660008261109a565b6001810190506110b3565b5050565b601f821115611116576110e781610fb6565b6110f084610fcb565b810160208510156110ff578190505b61111361110b85610fcb565b8301826110b2565b50505b505050565b600082821c905092915050565b60006111396000198460080261111b565b1980831691505092915050565b60006111528383611128565b9150826002028217905092915050565b61116b82610a1f565b67ffffffffffffffff8111156111845761118361087c565b5b61118e8254610f85565b6111998282856110d5565b600060209050601f8311600181146111cc57600084156111ba578287015190505b6111c48582611146565b86555061122c565b601f1984166111da86610fb6565b60005b82811015611202578489015182556001820191506020850194506020810190506111dd565b8683101561121f578489015161121b601f891682611128565b8355505b6001600288020188555050505b50505050505056fea26469706673582212208279cb1362c7044d25afbf01c2677dac91c8839d278e8e556b3a9986f2d9b51564736f6c63430008110033",
  "linkReferences": {},
  "deployedLinkReferences": {}
}